:020000040800F2
:10000000005000203D2100088521000885210008BE
:1000100085210008852100088521000800000000D6
:10002000000000000000000000000000A51D000806
:100030008521000800000000C11E0008091F0008FB
:1000400085210008852100088521000885210008F8
:1000500085210008852100088521000885210008E8
:1000600085210008852100088521000885210008D8
:1000700085210008852100088521000885210008C8
:1000800085210008852100088521000885210008B8
:1000900085210008852100088521000885210008A8
:1000A0008521000885210008852100088521000898
:1000B0008521000885210008852100088521000888
:1000C0008521000885210008852100088521000878
:1000D0008521000885210008852100088521000868
:1000E0008521000885210008852100080000000006
:1000F0000000000000000000000000000000000000
:0C01000000000000000000005FF808F1A3
:1001100010B5064C2378002B07D1054B002B02D0DD
:100120000448AFF300800123237010BD08000020B5
:1001300000000000FC210008044B10B5002B03D088
:1001400003490448AFF3008010BDC0460000000022
:100150000C000020FC210008002243088B4274D3CD
:1001600003098B425FD3030A8B4244D3030B8B42B8
:1001700028D3030C8B420DD3FF22090212BA030CC1
:100180008B4202D31212090265D0030B8B4219D3A2
:1001900000E0090AC30B8B4201D3CB03C01A5241C2
:1001A000830B8B4201D38B03C01A5241430B8B420A
:1001B00001D34B03C01A5241030B8B4201D30B03F3
:1001C000C01A5241C30A8B4201D3CB02C01A52411A
:1001D000830A8B4201D38B02C01A5241430A8B42DD
:1001E00001D34B02C01A5241030A8B4201D30B02C6
:1001F000C01A5241CDD2C3098B4201D3CB01C01AE0
:10020000524183098B4201D38B01C01A52414309E9
:100210008B4201D34B01C01A524103098B4201D3D7
:100220000B01C01A5241C3088B4201D3CB00C01A44
:10023000524183088B4201D38B00C01A52414308BC
:100240008B4201D34B00C01A5241411A00D20146E1
:10025000524110467047FFE701B5002000F006F854
:1002600002BDC0460029F7D076E770477047C04608
:1002700080B582B000AF78607B6808331A007B6875
:100280005A607B68012252429A607B6808331A00E8
:100290007B68DA607B6808331A007B681A617B68C8
:1002A00000221A60C046BD4602B080BD80B582B053
:1002B00000AF78607B6800221A61C046BD4602B07C
:1002C00080BD80B584B000AF786039607B685B68C2
:1002D000FB603B68FA685A60FB689A683B689A6002
:1002E000FB689B683A685A60FB683A689A603B68AA
:1002F0007A681A617B681B685A1C7B681A60C04662
:10030000BD4604B080BD80B584B000AF7860396070
:100310003B681B68BB60BB68013303D17B681B690A
:10032000FB600CE07B680833FB6002E0FB685B6805
:10033000FB60FB685B681B68BA689A42F6D2FB6890
:100340005A683B685A603B685B683A689A603B68E9
:10035000FA689A60FB683A685A603B687A681A6182
:100360007B681B685A1C7B681A60C046BD4604B097
:1003700080BD80B584B000AF78607B681B69FB608E
:100380007B685B687A6892689A607B689B687A6829
:1003900052685A60FB685B687A689A4203D17B684E
:1003A0009A68FB685A607B6800221A61FB681B68C8
:1003B0005A1EFB681A60FB681B681800BD4604B033
:1003C00080BD80B584B000AF786039607B68FB6029
:1003D000FB68002B01D172B6FEE701F039FDFB6826
:1003E0001A68FB68D96BFB681B6C4B43D218FB681F
:1003F0009A60FB6800229A63FB681A68FB685A607F
:10040000FB681A68FB68DB6B591EFB681B6C4B436F
:10041000D218FB68DA60FB684422FF219954FB681C
:100420004522FF2199543B68002B0DD1FB681B69C5
:10043000002B13D0FB681033180000F055FF031E8B
:100440000CD001F0F5FC09E0FB6810331800FFF751
:100450000FFFFB6824331800FFF70AFF01F00AFDC5
:1004600001231800BD4604B080BD90B58BB002AF2B
:10047000F860B960FB1D1A70FB68002B01D172B6E1
:10048000FEE7FB68BA685343FB61BB68002B08D0EA
:10049000B968F869FFF760FE03001A00FB68934231
:1004A00001D1012300E00023002B01D172B6FEE749
:1004B000FB695033180001F05BFD0300BB61BB69B1
:1004C000002B0ED0BB697B617B6950337B61FB1DC8
:1004D0001C787A69B968F868BB690093230000F05A
:1004E00005F8BB691800BD4609B090BD80B584B061
:1004F00000AFF860B9607A601A00FB1C1A70BB6824
:10050000002B03D1BB69BA691A6002E0BB697A6843
:100510001A60BB69FA68DA63BB69BA681A64BB69B6
:1005200001211800FFF74DFFBB69FA1C4C2112781E
:100530005A54C046BD4604B080BD80B58AB000AFF5
:10054000F860B9607A603B6000237B62FB683B62C5
:100550003B6A002B01D172B6FEE7BB68002B03D1CA
:100560003B6A1B6C002B01D1012300E00023002B10
:1005700001D172B6FEE73B68022B03D13B6ADB6B0D
:10058000012B01D1012300E00023002B01D172B621
:10059000FEE701F025F8031E02D17B68002B01D194
:1005A000012300E00023002B01D172B6FEE701F029
:1005B0004FFC3B6A9A6B3B6ADB6B9A4202D33B6807
:1005C000022B1ED13A68B9683B6A180000F0AAF9FC
:1005D0000300FB613B6A5B6A002B09D03B6A243352
:1005E000180000F081FE031E07D001F021FC04E09A
:1005F000FB69002B01D001F01BFC01F03BFC012347
:100600005BE07B68002B03D101F034FC002354E055
:100610007B6A002B06D11423FB18180000F0C0FEE3
:1006200001237B6201F026FC00F072FC01F010FC5B
:100630003B6A44229B5C5BB2013303D13B6A442298
:10064000002199543B6A45229B5C5BB2013303D184
:100650003B6A45220021995401F00CFC3A1D1423F9
:10066000FB181100180000F0AFFE031E1ED13B6AFC
:10067000180000F05CFA031E11D03B6A10337A6850
:100680001100180000F0ECFD3B6A180000F0DBF9E7
:1006900000F04AFC031E8AD101F0CAFB87E73B6ADF
:1006A000180000F0D0F900F03FFC80E73B6A18002A
:1006B00000F0C9F900F038FC00231800BD460AB06C
:1006C00080BD90B58BB000AFF860B9607A603B60D8
:1006D000FB683B623B6A002B01D172B6FEE7BB6848
:1006E000002B03D13B6A1B6C002B01D1012300E0DE
:1006F0000023002B01D172B6FEE73B68022B03D129
:100700003B6ADB6B012B01D1012300E00023002BAE
:1007100001D172B6FEE701F0C5FB0300FB613B6A45
:100720009A6B3B6ADB6B9A4202D33B68022B39D14E
:100730001B243B193A6A4521525C1A703B6A9B6B39
:100740007B613A68B9683B6A180000F0EBF83B1926
:100750001B785BB2013311D13B6A5B6A002B1ED060
:100760003B6A2433180000F0BFFD031E17D07B68DE
:10077000002B14D07B6801221A6010E01B23FB18A9
:100780001B785BB27F2B01D172B6FEE71B23FB18EF
:100790001B780133DBB259B23B6A452299540123DD
:1007A0007B6201E000237B62FB69180001F080FBA3
:1007B0007B6A1800BD460BB090BD80B58AB000AF13
:1007C000F860B9607A6000237B62FB683B623B6A39
:1007D000002B01D172B6FEE7BB68002B03D13B6A48
:1007E0001B6C002B01D1012300E00023002B01D161
:1007F00072B6FEE700F0F4FE031E02D17B68002B08
:1008000001D1012300E00023002B01D172B6FEE7E5
:1008100001F01EFB3B6A9B6BFB61FB69002B1AD04E
:10082000BA683B6A1100180000F0E7F8FB695A1E2D
:100830003B6A9A633B6A1B69002B08D03B6A103302
:10084000180000F051FD031E01D001F0F1FA01F093
:1008500011FB012362E07B68002B03D101F00AFB4E
:1008600000235BE07B6A002B06D11423FB181800E1
:1008700000F096FD01237B6201F0FCFA00F048FBDA
:1008800001F0E6FA3B6A44229B5C5BB2013303D180
:100890003B6A4422002199543B6A45229B5C5BB22F
:1008A000013303D13B6A45220021995401F0E2FA59
:1008B0003A1D1423FB181100180000F085FD031EDB
:1008C0001ED13B6A180000F01CF9031E11D03B6AD0
:1008D00024337A681100180000F0C2FC3B6A18004B
:1008E00000F0B1F800F020FB031E91D101F0A0FA56
:1008F0008EE73B6A180000F0A6F800F015FB87E7CA
:100900003B6A180000F09FF800F00EFB3B6A1800ED
:1009100000F0F7F8031E00D17AE700231800BD4667
:100920000AB080BD80B586B000AFF860B9607A606B
:1009300000237B61FB689B6B3B61FB681B6C002B9E
:100940000ED1FB681B68002B4ED1FB689B6818001A
:1009500000F062FE03007B61FB6800229A6043E0C6
:100960007B68002B19D1FB685868FB681A6CBB6860
:10097000190001F031FCFB685A68FB681B6CD21847
:10098000FB685A60FB685A68FB689B689A422BD3E5
:10099000FB681A68FB685A6026E0FB68D868FB6849
:1009A0001A6CBB68190001F017FCFB68DA68FB6879
:1009B0001B6C5B42D218FB68DA60FB68DA68FB6884
:1009C0001B689A4207D2FB689A68FB681B6C5B4203
:1009D000D218FB68DA607B68022B05D13B69002BDB
:1009E00002D03B69013B3B613B695A1CFB689A633F
:1009F0007B691800BD4606B080BD80B582B000AFEF
:100A0000786039607B681B6C002B18D07B68DA68D3
:100A10007B681B6CD2187B68DA607B68DA687B685D
:100A20009B689A4203D37B681A687B68DA607B68AC
:100A3000D9687B681A6C3B68180001F0CDFBC04692
:100A4000BD4602B080BD80B584B000AF786001F0D3
:100A5000FFF90F23FB187A684521525C1A7013E0E6
:100A60007B685B6A002B16D07B682433180000F08B
:100A70003BFC031E01D000F0FBFC0F217B181B7810
:100A8000013BDAB27B181A700F23FB181B785BB29C
:100A9000002BE5DC00E0C0467B684522FF2199542D
:100AA00001F0E8F901F0D4F90E23FB187A6844212B
:100AB000525C1A7013E07B681B69002B16D07B68B0
:100AC0001033180000F010FC031E01D000F0D0FC21
:100AD0000E217B181B78013BDAB27B181A700E23AB
:100AE000FB181B785BB2002BE5DC00E0C0467B689E
:100AF0004422FF21995401F0BDF9C046BD4604B01F
:100B000080BD80B584B000AF786001F0A1F97B684A
:100B10009B6B002B02D10123FB6001E00023FB60F3
:100B200001F0A8F9FB681800BD4604B080BD80B58F
:100B300084B000AF786001F08BF97B689A6B7B68BA
:100B4000DB6B9A4202D10123FB6001E00023FB60D2
:100B500001F090F9FB681800BD4604B080BD80B577
:100B600086B000AFF860B9607A60FB687B6101F025
:100B70006FF97B6944229B5C5BB2013303D17B69D3
:100B80004422002199547B6945229B5C5BB201336E
:100B900003D17B6945220021995401F06BF97B69EF
:100BA0009B6B002B06D17B6924337A68B9681800E7
:100BB00000F074FB7B691800FFF745FFC046BD4697
:100BC00006B080BD90B58DB004AFF860B9603B60F1
:100BD000BB1D1A80BB1D1B889B00180001F0C8F9C3
:100BE00003007B617B69002B10D0582001F0C0F915
:100BF0000300FB61FB69002B03D0FB697A691A6370
:100C000006E07B69180001F0F9F901E00023FB61BF
:100C1000FB69002B16D0BB1D1A883C68B968F868C0
:100C200000230393FB6902937B6B01933B6B00935F
:100C3000230000F00FF8FB69180000F09BF8012377
:100C4000BB6102E001235B42BB61BB691800BD468A
:100C500009B090BD80B586B000AFF860B9607A6029
:100C60003B60BB6A186B7B689B001A00A52101F0F2
:100C7000BCFABB6A1A6B7B683D498C4663449B0097
:100C8000D3183B613B69072293433B613B690722D1
:100C9000134001D072B6FEE7BB68002B20D00023C2
:100CA0007B6113E0BA687B69D3181878BA6A34217B
:100CB0007B69D3185B18021C1A70BA687B69D31859
:100CC0001B78002B06D07B6901337B617B69092B84
:100CD000E8D900E0C046BB6A3D220021995403E0F8
:100CE000BB6A3422002199543B6A042B01D90423A6
:100CF0003B62BB6A3A6ADA62BB6A3A6A9A64BB6A66
:100D00000022DA64BB6A04331800FFF7CFFABB6A2B
:100D100018331800FFF7CAFABB6ABA6A1A613B6A4D
:100D20000522D21ABB6A9A61BB6ABA6A5A62BB6A66
:100D3000503304220021180001F057FABB6A5433E3
:100D400001220021180001F050FA3A68F9683B6965
:100D5000180000F0E5FF0200BB6A1A607B6A002BF6
:100D600002D07B6ABA6A1A60C046BD4606B080BD32
:100D7000FFFFFF3F80B582B000AF786001F068F8F8
:100D80002A4B1B685A1C294B1A60294B1B68002BE5
:100D900009D1274B7A681A60244B1B68012B10D1AC
:100DA00000F080FB0DE0234B1B68002B09D1204B8A
:100DB0001B68DA6A7B68DB6A9A4202D81C4B7A6845
:100DC0001A601D4B1B685A1C1B4B1A601A4B1A6881
:100DD0007B681A647B68DA6A184B1B689A4203D9ED
:100DE0007B68DA6A154B1A607B68DA6A13009B002D
:100DF0009B189B00124A9A187B6804331900100054
:100E0000FFF75FFA01F036F80A4B1B68002B08D099
:100E1000074B1B68DA6A7B68DB6A9A4201D201F0F1
:100E200007F8C046BD4602B080BDC046FC000020A9
:100E300024000020080100201801002004010020E7
:100E40002800002080B584B000AF78600023FB60EC
:100E50007B68002B10D00D4B1B68002B01D072B6A5
:100E6000FEE700F055F87B680021180000F030FC28
:100E700000F05AF80300FB60FB68002B01D100F082
:100E8000D7FFC046BD4604B080BDC0462401002047
:100E900080B584B002AF17491748184B019300235F
:100EA000009300234622FFF78DFE03007B607B68E2
:100EB000012B03D100F060FC03007B607B68012BF9
:100EC0000DD172B60E4B012252421A600D4B012217
:100ED0001A600D4B00221A6000F086FF04E07B6868
:100EE000013301D172B6FEE7084B1B68C046BD4610
:100EF00002B080BD142200088514000820010020E3
:100F00001C0100200801002000010020000000203A
:100F100080B500AF034B1B685A1C024B1A60C046D9
:100F2000BD4680BD2401002080B584B000AF002301
:100F3000FB600023BB603A4B1B68002B01D172B6EB
:100F4000FEE700F085FF364B1B685A1E344B1A60D3
:100F5000334B1B68002B5BD1324B1B68002B57D0E7
:100F60002FE0314BDB68DB68FB60FB68183318004F
:100F7000FFF7FFF9FB6804331800FFF7FAF9FB6885
:100F8000DA6A2A4B1B689A4203D9FB68DA6A274B54
:100F90001A60FB68DA6A13009B009B189B00244AC6
:100FA0009A18FB68043319001000FFF78AF9FB68F0
:100FB000DA6A204B1B68DB6A9A4202D31E4B01227D
:100FC0001A60194B1B68002BCBD1FB68002B01D09A
:100FD00000F0ECFA194B1B687B607B68002B0FD08C
:100FE00000F03CF8031E02D0134B01221A607B680C
:100FF000013B7B607B68002BF2D1104B00221A6012
:101000000D4B1B68002B03D00123BB6000F010FFC9
:1010100000F030FFBB681800BD4604B080BDC0467C
:1010200024010020FC000020BC000020040100205E
:101030002800002024000020100100200C010020C6
:1010400080B582B000AF044B1B687B607B681800E2
:10105000BD4602B080BDC0460001002080B586B00C
:1010600000AF00237B614A4B1B68002B00D084E05B
:10107000484B1B6801333B61464B3A691A603B6938
:10108000002B17D1444B1B681B68002B01D072B694
:10109000FEE7414B1B68FB60404B1A683E4B1A60F1
:1010A0003E4BFA681A603E4B1B685A1C3C4B1A6058
:1010B00000F07CFA3B4B1B683A699A4249D3364BA5
:1010C0001B681B68002B04D1364B012252421A6068
:1010D0003FE0314B1B68DB68DB68BB60BB685B686B
:1010E0007B603A697B689A4203D22E4B7A681A6019
:1010F0002FE0BB6804331800FFF73BF9BB689B6A1D
:10110000002B04D0BB6818331800FFF732F9BB6816
:10111000DA6A254B1B689A4203D9BB68DA6A224B0C
:101120001A60BB68DA6A13009B009B189B001F4A79
:101130009A18BB68043319001000FFF7C2F8BB68A7
:10114000DA6A1B4B1B68DB6A9A42B8D301237B61C6
:10115000B5E7174B1B68DA6A144913009B009B180C
:101160009B005B58012B01D901237B61114B1B684C
:10117000002B07D001237B6104E00F4B1B685A1C36
:101180000D4B1A607B691800BD4606B080BDC04695
:101190002401002000010020B4000020B80000203D
:1011A000140100201C010020040100202800002060
:1011B00024000020100100200C01002080B582B026
:1011C00000AF224B1B68002B03D0214B01221A6079
:1011D00037E01F4B00221A601E4B1B687B6007E044
:1011E0007B68002B01D172B6FEE77B68013B7B6018
:1011F00019497A6813009B009B189B005B58002BD1
:10120000EED07A6813009B009B189B00124A9B1833
:101210003B603B685B685A683B685A603B685A6849
:101220003B6808339A4204D13B685B685A683B6864
:101230005A603B685B68DA68084B1A60054B7A684D
:101240001A60C046BD4602B080BDC04624010020E1
:1012500010010020040100202800002024000020AC
:1012600080B582B000AF786039607B68002B01D117
:1012700072B6FEE7084B1B6818331A007B68110032
:101280001800FFF740F83B680121180000F020FA31
:10129000C046BD4602B080BD2400002080B584B0A9
:1012A00000AFF860B9607A60FB68002B01D172B6BC
:1012B000FEE70C4B1B6818331A00FB68110018007E
:1012C000FEF7FFFF7B68002B02D001235B42BB606F
:1012D0007A68BB681100180000F0FAF9C046BD46F4
:1012E00004B080BD2400002080B584B000AF7860D9
:1012F0007B68DB68DB68BB60BB68002B01D172B622
:10130000FEE7BB6818331800FFF733F81E4B1B6865
:10131000002B1DD1BB6804331800FFF72AF8BB6807
:10132000DA6A1A4B1B689A4203D9BB68DA6A174B10
:101330001A60BB68DA6A13009B009B189B00144A72
:101340009A18BB68043319001000FEF7BAFF07E0D3
:10135000BB6818331A000F4B11001800FEF7B1FFDD
:10136000BB68DA6A0C4B1B68DB6A9A4205D9012319
:10137000FB600A4B01221A6001E00023FB60FB685E
:101380001800BD4604B080BD2401002004010020E7
:1013900028000020BC0000202400002010010020B4
:1013A00080B582B000AF7860054B1A687B681A6020
:1013B000044B1A687B685A60C046BD4602B080BDC7
:1013C000140100200001002080B586B000AF7860D5
:1013D00039607B68002B01D172B6FEE73B68002BB9
:1013E00001D172B6FEE700F033FD1F4B1B683B6175
:1013F0007B685B683A69D31AFB603B681B68013302
:1014000002D100237B6127E07B681A68174B1B68B9
:101410009A420AD07B685B683A699A4205D30123F5
:101420007B613B6800221A6016E03B681B68FA6823
:101430009A420CD23B681A68FB68D21A3B681A6061
:101440007B681800FFF7ACFF00237B6104E03B687A
:1014500000221A6001237B6100F00CFD7B691800FB
:10146000BD4606B080BDC04600010020140100202A
:1014700080B500AF024B01221A60C046BD4680BD58
:101480001001002080B582B000AF786000F04EF807
:10149000034B1B68012BF9D900F0CAFCF6E7C046E4
:1014A0002800002080B582B000AF00237B600CE0F4
:1014B0007A6813009B009B189B00144A9B18180025
:1014C000FEF7D6FE7B6801337B607B68042BEFD987
:1014D0000F4B1800FEF7CCFE0E4B1800FEF7C8FEAF
:1014E0000D4B1800FEF7C4FE0C4B1800FEF7C0FEB3
:1014F0000B4B1800FEF7BCFE0A4B054A1A600A4B5C
:10150000044A1A60C046BD4602B080BD28000020D3
:101510008C000020A0000020BC000020D000002093
:10152000E8000020B4000020B800002080B582B0A0
:1015300000AF1AE000F08CFC104BDB68DB687B60CE
:101540007B6804331800FEF714FF0D4B1B685A1E0E
:101550000B4B1A600B4B1B685A1E0A4B1A6000F0AB
:1015600089FC7B68180000F00FF8064B1B68002B05
:10157000E0D1C046C046BD4602B080BDD0000020CC
:10158000FC000020E400002080B582B000AF78604D
:101590007B681B6B180000F031FD7B68180000F0C1
:1015A0002DFDC046BD4602B080BD000080B500AF35
:1015B000094B1B681B68002B04D1084B01225242C7
:1015C0001A6005E0044B1B68DB681A68034B1A605D
:1015D000C046BD4680BDC046B40000201C010020AE
:1015E00080B582B000AF0A4B1B68002B02D10123EB
:1015F0007B6008E0074B1B68002B02D102237B6055
:1016000001E000237B607B681800BD4602B080BD0E
:10161000080100202401002080B584B000AF78606C
:101620007B68BB600023FB607B68002B44D0254BAC
:101630001B68BA689A4201D072B6FEE7BB68DB6CE1
:10164000002B01D172B6FEE7BB68DB6C5A1EBB688B
:10165000DA64BB68DA6ABB689B6C9A422CD0BB68C0
:10166000DB6C002B28D1BB6804331800FEF781FE29
:10167000BB689A6CBB68DA62BB68DB6A0522D21A67
:10168000BB689A61BB68DA6A0F4B1B689A4203D940
:10169000BB68DA6A0C4B1A60BB68DA6A13009B00FD
:1016A0009B189B00094A9A18BB6804331900100064
:1016B000FEF707FE0123FB60FB681800BD4604B07F
:1016C00080BDC04624000020040100202800002026
:1016D00080B584B000AF78603960214B1B68FB6037
:1016E000204B1B6804331800FEF743FE7B68013370
:1016F0000BD13B68002B08D01A4B1B681A1D1A4BE4
:1017000011001800FEF7DDFD26E0FA687B68D318AB
:10171000BB60144B1B68BA685A60BA68FB689A428F
:1017200009D2124B1A680F4B1B68043319001000C2
:10173000FEF7E9FD10E00E4B1A680A4B1B680433F4
:1017400019001000FEF7DFFD0A4B1B68BA689A42C9
:1017500002D2084BBA681A60C046BD4604B080BDCC
:101760000001002024000020E8000020B800002034
:10177000B40000201C01002080B584B002AF00231B
:101780007B6000F09FFA0D4B1B68002B0BD00C49BF
:101790000C480D4B01930323009300234622FFF7CF
:1017A00011FA03007B607B68002B01D172B6FEE763
:1017B0007B681800BD4602B080BDC04658010020BD
:1017C0001C220008E91800085C01002090B589B0CF
:1017D00000AFF860B9607A603B600023FB61FB6892
:1017E000002B01D172B6FEE71C4B1B68002B30D0DA
:1017F00010243B19BA681A603B197A685A603B1981
:10180000FA689A60BB68052B19DCFFF7E9FE030054
:10181000022B09D1114B18683A6B39190023FEF7D6
:101820008CFE0300FB6114E00C4B18681023F918C0
:1018300000230022FEF781FE0300FB6109E0074B55
:1018400018683A681023F9180023FEF73AFF0300DE
:10185000FB61FB691800BD4609B090BD580100202E
:1018600080B586B002AF786039601E4B1B68DB68BC
:10187000DB68FB60FB6804331800FEF77AFDFB6849
:1018800028229B5C1A000423134019D0FB689A6934
:101890007B68D1187B683A68F86800F0C3F8031ECB
:1018A00017D07A68F8680023009300230021FFF71F
:1018B0008DFF0300BB60BB68002B0AD172B6FEE748
:1018C000FB6828229B5C01229343D9B2FB68282243
:1018D0009954FB681B6AFA6810009847C046BD46D9
:1018E00004B080BD5001002080B584B000AF7860A6
:1018F0000823FB18180000F053F80300FB60BA68D7
:10190000FB681100180000F003F800F0CDF8EFE7D5
:1019100080B584B000AF78603960FFF7F9FA08232A
:10192000FB18180000F05EF80300FB60BB68002B9A
:101930002BD13B68002B0CD17A68FB689A4208D8FF
:10194000FFF7F2FAFA687B6811001800FFF788FFCA
:101950001DE03B68002B08D00F4B1B681B68002B59
:1019600001D1012300E000233B600C4B18687A682A
:10197000FB68D31A3A681900FFF7F1F8FFF7D4FAB9
:10198000031E04D100F054FA01E0FFF7CDFAC0467F
:10199000BD4604B080BDC04654010020580100205F
:1019A00080B584B000AF78600D4B1B681B68002BBE
:1019B00001D1012200E000227B681A607B681B686D
:1019C000002B05D1064B1B68DB681B68FB6001E040
:1019D0000023FB60FB681800BD4604B080BDC04614
:1019E0005001002080B584B000AF7860FFF728FB7D
:1019F0000300FB600A4B1B68FA689A4205D200F0AC
:101A000003F97B6801221A6002E07B6800221A60F9
:101A1000034BFA681A60FB681800BD4604B080BD2D
:101A20006001002080B586B000AFF860B9607A60D0
:101A30003B6000237B61FB68BA685A60FB68FA6808
:101A40001A61BA687B689A4212D87A683B68D21ADF
:101A5000FB689B699A4202D301237B611BE0104B18
:101A60001A68FB68043319001000FEF74CFC12E002
:101A70007A683B689A4206D2BA683B689A4202D3B7
:101A800001237B6107E0074B1A68FB6804331900E8
:101A90001000FEF738FC7B691800BD4606B080BD1B
:101AA000540100205001002090B58BB002AF97E0A8
:101AB0000822BB181B68002B00DA90E0BB189B685B
:101AC000FB61FB695B69002B04D0FB6904331800E0
:101AD000FEF74FFC3B1D1800FFF784FF0300BB61BE
:101AE0000823FB181B68092B00D979E09A00444BA6
:101AF000D3181B689F46FB6928229B5C0122134375
:101B0000D9B2FB692822995408243B195A68FB6909
:101B10009B69D1183B195B68BA69F869FFF782FFC6
:101B2000031E5DD0FB691B6AFA6910009847FB69C8
:101B300028229B5C1A000423134051D03B195A6899
:101B4000FB699B69D218F8690023009300230021E8
:101B5000FFF73CFE03007B617B69002B40D172B62E
:101B6000FEE7FB6928229B5C01229343D9B2FB6903
:101B70002822995434E0FB6928229B5C01221343FC
:101B8000D9B2FB69282299540823FB185A68FB69CB
:101B90009A61FB699B69002B01D172B6FEE7FB6974
:101BA0009A69BB69D118BB69BA69F869FFF73AFF4E
:101BB00016E0FB6928229B5C1A000223134004D123
:101BC000FB69180000F01AFA0AE0FB6928229B5C06
:101BD00001229343D9B2FB692822995400E0C04600
:101BE000084B1B680822B91800221800FEF7E5FD13
:101BF000031E00D05CE7C046C046BD4609B090BD9C
:101C0000342200085801002080B588B002AF41E0BE
:101C10002A4B1B68DB681B683B61284B1B68DB6831
:101C2000DB68FB60FB6804331800FEF7A2FBFB686F
:101C30001B6AFA6810009847FB6828229B5C1A0010
:101C40000423134026D0FB689B693A69D318BB6014
:101C5000BA683B699A420ED9FB68BA685A60FB6859
:101C6000FA681A61154B1A68FB68043319001000F2
:101C7000FEF749FB0EE03A69F86800230093002361
:101C80000021FFF7A3FD03007B607B68002B01D1DF
:101C900072B6FEE7094B1B681B68002BB8D1074BD7
:101CA0001B687B61064B1A68044B1A60044B7A6907
:101CB0001A60C046BD4606B080BDC0465001002037
:101CC0005401002080B500AF00F0C2F80F4B1B6834
:101CD000002B15D10E4B1800FEF7CAFA0D4B180059
:101CE000FEF7C6FA0C4B0A4A1A600C4B094A1A60F6
:101CF00000220C210520FEF7B8FB0200034B1A60FE
:101D000000F0B8F8C046BD4680BDC046580100206E
:101D1000280100203C010020500100205401002037
:101D200080B584B000AFF860B9607A60FB68043BAE
:101D3000FB60FB68802252041A60FB68043BFB6076
:101D4000BA68FB681A60FB68043BFB60084AFB68E2
:101D50001A60FB68143BFB607A68FB681A60FB68DA
:101D6000203BFB60FB681800BD4604B080BDC04648
:101D7000751D000880B582B000AF00237B60084B62
:101D80001B68013301D072B6FEE772B6C0467B68AD
:101D9000002BFCD0C046C046BD4602B080BDC04648
:101DA0000400002080B500AFC046BD4680BD0000E5
:101DB0000B4A13681868203080F30988022080F3EA
:101DC0001488BFF36F8F3FBCAE4608BC04BC62B63C
:101DD0001847C046C046C046C046C046C046C0467A
:101DE00024000020C046C04680B500AF0E4B1A68E4
:101DF0000D4BFF2109040A431A600B4B1A680A4B6A
:101E0000FF2109060A431A6000F098F8074B0022E8
:101E10001A60FFF7CDFFFFF7D1F9FFF7ABFF002303
:101E20001800BD4680BDC04620ED00E00400002043
:101E300080B500AF054B802252051A60BFF34F8F6B
:101E4000BFF36F8FC046BD4680BDC04604ED00E0C5
:101E500080B500AF72B6064B1B685A1C044B1A6063
:101E6000BFF34F8FBFF36F8FC046BD4680BDC046E6
:101E70000400002080B500AF094B1B68002B01D186
:101E800072B6FEE7064B1B685A1E054B1A60044BE0
:101E90001B68002B00D162B6C046BD4680BDC0465F
:101EA00004000020EFF3108072B67047C04618009F
:101EB00080F310887047C04600000000000000005A
:101EC000EFF309800E4B1A6820381060F0C04446CA
:101ED0004D4656465F46F0C008B572B6FFF76EF93C
:101EE00062B60CBC116808681030F0C8A046A9465C
:101EF000B246BB4680F309882038F0C81847C04670
:101F000024000020C046C04680B582B000AFFFF775
:101F1000C9FF03007B60FFF7A1F8031E03D0064B47
:101F2000802252051A607B681800FFF7C1FFC04687
:101F3000BD4602B080BDC04604ED00E080B500AFF4
:101F4000074B00221A60074B00221A60064B074A13
:101F50001A60034B07221A60C046BD4680BDC046CA
:101F600010E000E018E000E014E000E09F8C0000CA
:101F700080B584B000AF78600023FB607B680722E7
:101F8000134004D07B680722934308337B60FEF73D
:101F9000BFFF164B1B68002B05D1154B072293433F
:101FA0001A00124B1A60134B1A687B68D318124A36
:101FB000934213D80F4B1A687B68D2180D4B1B68DD
:101FC0009A420BD9094B1A680A4B1B68D318FB605D
:101FD000084B1A687B68D218064B1A60FEF7A4FFFC
:101FE000FB681800BD4604B080BDC046681D0020D7
:101FF0006C010020641D0020F71B000080B582B03A
:1020000000AF78607B68002B01D072B6FEE7C04657
:10201000BD4602B080BD000080B500AF104B1A680D
:102020000F4B01210A431A60C0460D4B1B68022268
:102030001340FAD00A4B9A69094B01210A439A616D
:10204000074B9A69064B04210A439A61044B9A692B
:10205000034B8021C9010A439A61C046BD4680BD39
:102060000010024080B500AF0A4B9A69094B10215D
:102070000A439A61084B5A68074B08490A405A605C
:10208000054B5A68044BC021C9030A435A60C04635
:10209000BD4680BD0010024000100140FFFF0FFF51
:1020A00080B582B002AFFFF7B7FFFFF7DBFF8023F9
:1020B0005A000B490B48002301930123009300238E
:1020C000FEF780FD80235A0007490848002301934A
:1020D000022300930023FEF775FDFEF7D9FEFEE70D
:1020E00024220008F12000082C22000819210008F1
:1020F00080B582B000AF7860064BDA68054B80216E
:1021000089010A43DA6096235B001800FEF79AFE05
:10211000F2E7C0460010014080B582B000AF7860A1
:10212000054BDA68044B802189010A43DA60962066
:10213000FEF788FEF4E7C046001001400C480D4948
:102140000D4A002302E0D458C4500433C4188C4212
:10215000F9D30A4A0A4C002301E013600432A24278
:10216000FBD300F010F800F013F8FFF799FF704769
:102170000000002008000020642200080800002061
:102180006C1D0020FEE780B500AFC046BD4680BD97
:1021900070B500260C4D0D4C641BA410A64209D14D
:1021A000002600F02BF80A4D0A4C641BA410A6422E
:1021B00005D170BDB300EB5898470136EEE7B30088
:1021C000EB5898470136F2E75C2200085C220008D1
:1021D0005C22000860220008002310B59A4200D15A
:1021E00010BDCC5CC4540133F8E70300821893425D
:1021F00000D1704719700133F9E70000F8B5C04607
:10220000F8BC08BC9E467047F8B5C046F8BC08BC90
:042210009E4670472F
:1022140049444C4500000000546D7220537663001D
:102224005461736B5F3100005461736B5F32000063
:10223400F61A0008F61A0008F61A0008621B0008CD
:10224400761B0008B21B0008F61A0008F61A0008EC
:08225400621B0008761B000864
:04225C00390100083C
:042260001101000860
:0822640004000000AAAAAAAAC6
:040000050800213D91
:00000001FF
